{
  "_format": "hh-sol-artifact-1",
  "contractName": "Gallery",
  "sourceName": "contracts/Gallery.sol",
  "abi": [
    {
      "inputs": [
        {
          "internalType": "string",
          "name": "url",
          "type": "string"
        }
      ],
      "name": "addImage",
      "outputs": [],
      "stateMutability": "nonpayable",
      "type": "function"
    },
    {
      "inputs": [
        {
          "internalType": "string",
          "name": "_imghash",
          "type": "string"
        },
        {
          "internalType": "uint8",
          "name": "_rating",
          "type": "uint8"
        }
      ],
      "name": "addRating",
      "outputs": [],
      "stateMutability": "nonpayable",
      "type": "function"
    },
    {
      "inputs": [],
      "name": "getImage",
      "outputs": [
        {
          "internalType": "string[]",
          "name": "",
          "type": "string[]"
        }
      ],
      "stateMutability": "view",
      "type": "function"
    },
    {
      "inputs": [
        {
          "internalType": "address",
          "name": "_user",
          "type": "address"
        }
      ],
      "name": "getImg",
      "outputs": [
        {
          "internalType": "string[]",
          "name": "",
          "type": "string[]"
        }
      ],
      "stateMutability": "view",
      "type": "function"
    },
    {
      "inputs": [
        {
          "internalType": "string",
          "name": "_imghash",
          "type": "string"
        }
      ],
      "name": "getRatings",
      "outputs": [
        {
          "components": [
            {
              "internalType": "string",
              "name": "imghash",
              "type": "string"
            },
            {
              "internalType": "uint8",
              "name": "rating",
              "type": "uint8"
            }
          ],
          "internalType": "struct Gallery.Rating[]",
          "name": "",
          "type": "tuple[]"
        }
      ],
      "stateMutability": "view",
      "type": "function"
    },
    {
      "inputs": [
        {
          "internalType": "address",
          "name": "",
          "type": "address"
        },
        {
          "internalType": "uint256",
          "name": "",
          "type": "uint256"
        }
      ],
      "name": "imageUrl",
      "outputs": [
        {
          "internalType": "string",
          "name": "",
          "type": "string"
        }
      ],
      "stateMutability": "view",
      "type": "function"
    }
  ],
  "bytecode": "0x608060405234801561001057600080fd5b50611128806100206000396000f3fe608060405234801561001057600080fd5b50600436106100625760003560e01c80630615f1bd146100675780630697664814610097578063166f1779146100b35780636a3b4ab3146100cf5780638eccdf57146100ff578063f3651cbb1461012f575b600080fd5b610081600480360381019061007c919061075b565b61014d565b60405161008e919061093e565b60405180910390f35b6100b160048036038101906100ac919061098c565b610279565b005b6100cd60048036038101906100c89190610a48565b610315565b005b6100e960048036038101906100e49190610af3565b610357565b6040516100f69190610be2565b60405180910390f35b61011960048036038101906101149190610c3a565b61046f565b6040516101269190610cc4565b60405180910390f35b610137610528565b6040516101449190610be2565b60405180910390f35b606060018260405161015f9190610d22565b9081526020016040518091039020805480602002602001604051908101604052809291908181526020016000905b8282101561026e57838290600052602060002090600202016040518060400160405290816000820180546101c090610d68565b80601f01602080910402602001604051908101604052809291908181526020018280546101ec90610d68565b80156102395780601f1061020e57610100808354040283529160200191610239565b820191906000526020600020905b81548152906001019060200180831161021c57829003601f168201915b505050505081526020016001820160009054906101000a900460ff1660ff1660ff16815250508152602001906001019061018d565b505050509050919050565b6001826040516102899190610d22565b908152602001604051809103902060405180604001604052808481526020018360ff16815250908060018154018082558091505060019003906000526020600020906002020160009091909190915060008201518160000190816102ed9190610f45565b5060208201518160010160006101000a81548160ff021916908360ff16021790555050505050565b6000828290918060018154018082558091505060019003906000526020600020016000909192909192909192909192509182610352929190611022565b505050565b6060600260008373ffffffffffffffffffffffffffffffffffffffff1673ffffffffffffffffffffffffffffffffffffffff168152602001908152602001600020805480602002602001604051908101604052809291908181526020016000905b828210156104645783829060005260206000200180546103d790610d68565b80601f016020809104026020016040519081016040528092919081815260200182805461040390610d68565b80156104505780601f1061042557610100808354040283529160200191610450565b820191906000526020600020905b81548152906001019060200180831161043357829003601f168201915b5050505050815260200190600101906103b8565b505050509050919050565b6002602052816000526040600020818154811061048b57600080fd5b906000526020600020016000915091505080546104a790610d68565b80601f01602080910402602001604051908101604052809291908181526020018280546104d390610d68565b80156105205780601f106104f557610100808354040283529160200191610520565b820191906000526020600020905b81548152906001019060200180831161050357829003601f168201915b505050505081565b60606000805480602002602001604051908101604052809291908181526020016000905b828210156105f857838290600052602060002001805461056b90610d68565b80601f016020809104026020016040519081016040528092919081815260200182805461059790610d68565b80156105e45780601f106105b9576101008083540402835291602001916105e4565b820191906000526020600020905b8154815290600101906020018083116105c757829003601f168201915b50505050508152602001906001019061054c565b50505050905090565b6000604051905090565b600080fd5b600080fd5b600080fd5b600080fd5b6000601f19601f8301169050919050565b7f4e487b7100000000000000000000000000000000000000000000000000000000600052604160045260246000fd5b6106688261061f565b810181811067ffffffffffffffff8211171561068757610686610630565b5b80604052505050565b600061069a610601565b90506106a6828261065f565b919050565b600067ffffffffffffffff8211156106c6576106c5610630565b5b6106cf8261061f565b9050602081019050919050565b82818337600083830152505050565b60006106fe6106f9846106ab565b610690565b90508281526020810184848401111561071a5761071961061a565b5b6107258482856106dc565b509392505050565b600082601f83011261074257610741610615565b5b81356107528482602086016106eb565b91505092915050565b6000602082840312156107715761077061060b565b5b600082013567ffffffffffffffff81111561078f5761078e610610565b5b61079b8482850161072d565b91505092915050565b600081519050919050565b600082825260208201905092915050565b6000819050602082019050919050565b600081519050919050565b600082825260208201905092915050565b60005b8381101561080a5780820151818401526020810190506107ef565b60008484015250505050565b6000610821826107d0565b61082b81856107db565b935061083b8185602086016107ec565b6108448161061f565b840191505092915050565b600060ff82169050919050565b6108658161084f565b82525050565b600060408301600083015184820360008601526108888282610816565b915050602083015161089d602086018261085c565b508091505092915050565b60006108b4838361086b565b905092915050565b6000602082019050919050565b60006108d4826107a4565b6108de81856107af565b9350836020820285016108f0856107c0565b8060005b8581101561092c578484038952815161090d85826108a8565b9450610918836108bc565b925060208a019950506001810190506108f4565b50829750879550505050505092915050565b6000602082019050818103600083015261095881846108c9565b905092915050565b6109698161084f565b811461097457600080fd5b50565b60008135905061098681610960565b92915050565b600080604083850312156109a3576109a261060b565b5b600083013567ffffffffffffffff8111156109c1576109c0610610565b5b6109cd8582860161072d565b92505060206109de85828601610977565b9150509250929050565b600080fd5b600080fd5b60008083601f840112610a0857610a07610615565b5b8235905067ffffffffffffffff811115610a2557610a246109e8565b5b602083019150836001820283011115610a4157610a406109ed565b5b9250929050565b60008060208385031215610a5f57610a5e61060b565b5b600083013567ffffffffffffffff811115610a7d57610a7c610610565b5b610a89858286016109f2565b92509250509250929050565b600073ffffffffffffffffffffffffffffffffffffffff82169050919050565b6000610ac082610a95565b9050919050565b610ad081610ab5565b8114610adb57600080fd5b50565b600081359050610aed81610ac7565b92915050565b600060208284031215610b0957610b0861060b565b5b6000610b1784828501610ade565b91505092915050565b600081519050919050565b600082825260208201905092915050565b6000819050602082019050919050565b6000610b588383610816565b905092915050565b6000602082019050919050565b6000610b7882610b20565b610b828185610b2b565b935083602082028501610b9485610b3c565b8060005b85811015610bd05784840389528151610bb18582610b4c565b9450610bbc83610b60565b925060208a01995050600181019050610b98565b50829750879550505050505092915050565b60006020820190508181036000830152610bfc8184610b6d565b905092915050565b6000819050919050565b610c1781610c04565b8114610c2257600080fd5b50565b600081359050610c3481610c0e565b92915050565b60008060408385031215610c5157610c5061060b565b5b6000610c5f85828601610ade565b9250506020610c7085828601610c25565b9150509250929050565b600082825260208201905092915050565b6000610c96826107d0565b610ca08185610c7a565b9350610cb08185602086016107ec565b610cb98161061f565b840191505092915050565b60006020820190508181036000830152610cde8184610c8b565b905092915050565b600081905092915050565b6000610cfc826107d0565b610d068185610ce6565b9350610d168185602086016107ec565b80840191505092915050565b6000610d2e8284610cf1565b915081905092915050565b7f4e487b7100000000000000000000000000000000000000000000000000000000600052602260045260246000fd5b60006002820490506001821680610d8057607f821691505b602082108103610d9357610d92610d39565b5b50919050565b60008190508160005260206000209050919050565b60006020601f8301049050919050565b600082821b905092915050565b600060088302610dfb7fffffffffffffffffffffffffffffffffffffffffffffffffffffffffffffffff82610dbe565b610e058683610dbe565b95508019841693508086168417925050509392505050565b6000819050919050565b6000610e42610e3d610e3884610c04565b610e1d565b610c04565b9050919050565b6000819050919050565b610e5c83610e27565b610e70610e6882610e49565b848454610dcb565b825550505050565b600090565b610e85610e78565b610e90818484610e53565b505050565b5b81811015610eb457610ea9600082610e7d565b600181019050610e96565b5050565b601f821115610ef957610eca81610d99565b610ed384610dae565b81016020851015610ee2578190505b610ef6610eee85610dae565b830182610e95565b50505b505050565b600082821c905092915050565b6000610f1c60001984600802610efe565b1980831691505092915050565b6000610f358383610f0b565b9150826002028217905092915050565b610f4e826107d0565b67ffffffffffffffff811115610f6757610f66610630565b5b610f718254610d68565b610f7c828285610eb8565b600060209050601f831160018114610faf5760008415610f9d578287015190505b610fa78582610f29565b86555061100f565b601f198416610fbd86610d99565b60005b82811015610fe557848901518255600182019150602085019450602081019050610fc0565b868310156110025784890151610ffe601f891682610f0b565b8355505b6001600288020188555050505b505050505050565b600082905092915050565b61102c8383611017565b67ffffffffffffffff81111561104557611044610630565b5b61104f8254610d68565b61105a828285610eb8565b6000601f8311600181146110895760008415611077578287013590505b6110818582610f29565b8655506110e9565b601f19841661109786610d99565b60005b828110156110bf5784890135825560018201915060208501945060208101905061109a565b868310156110dc57848901356110d8601f891682610f0b565b8355505b6001600288020188555050505b5050505050505056fea2646970667358221220b864a6f40062dd535cdb6ed45414e09b23f6e323c0c5d1b1292f5101b7de8c1c64736f6c63430008120033",
  "linkReferences": {},
  "deployedLinkReferences": {}
}